:020000040800F2
:100000006806002029020008890600083B0600084F
:1000100085060008E302000821090008000000002E
:100020000000000000000000000000005D07000864
:10003000C90300080000000019070008B5080008FF
:10004000430200084302000843020008430200087C
:100050004302000843020008CB03000843020008E3
:10006000DB030008EB030008FF030008430200085D
:10007000430200084302000843020008430200084C
:10008000430200084302000843020008430200083C
:10009000430200084302000843020008430200082C
:1000A000430200084302000843020008430200081C
:1000B000430200084302000843020008430200080C
:1000C00043020008430200084302000843020008FC
:1000D00043020008430200084302000843020008EC
:1000E00043020008430200084302000843020008DC
:1000F00043020008430200084302000843020008CC
:1001000043020008430200084302000843020008BB
:1001100043020008430200084302000843020008AB
:10012000430200084302000843020008430200089B
:10013000430200084302000843020008430200088B
:10014000430200084302000843020008430200087B
:10015000430200084302000843020008430200086B
:10016000430200084302000843020008430200085B
:10017000430200084302000843020008430200084B
:10018000430200084302000800F002F800F03CF8C7
:100190000AA090E8000C82448344AAF10107DA45E2
:1001A00001D100F031F8AFF2090EBAE80F0013F0F8
:1001B000010F18BFFB1A43F0010318479C08000009
:1001C000BC080000103A24BF78C878C1FAD852079A
:1001D00024BF30C830C144BF04680C6070470000C1
:1001E0000023002400250026103A28BF78C1FBD840
:1001F000520728BF30C148BF0B6070471FB500F0E1
:1002000026FC1FBD10B510BD00F031F81146FFF7F8
:10021000F5FF00F00DFC00F04FF803B4FFF7F2FF1C
:1002200003BC00F057F80000094880470948004720
:10023000FEE7FEE7FEE7FEE7FEE7FEE7FEE7FEE796
:10024000FEE7FEE704480549054A064B70470000F3
:10025000B90800088901000868000020680600202D
:10026000680200206802002070477047704775469A
:1002700000F02CF8AE4605006946534620F0070012
:10028000854618B020B5FFF7DDFFBDE820404FF0F0
:1002900000064FF000074FF000084FF0000B21F070
:1002A0000701AC46ACE8C009ACE8C009ACE8C0093D
:1002B000ACE8C0098D46704710B50446AFF3008026
:1002C0002046BDE81040FFF7A8BF00000048704777
:1002D0000400002001491820ABBEFEE72600020002
:1002E000704700BFFEE710B5062000F055FB10BDBB
:1002F00010B54FF4807000F047F8012803D10002D8
:1003000000F04EF803E04FF4807000F053F8FFF770
:10031000EAFF10BD1CB50121022000F0FFF94FF4E7
:100320007070009001208DF8040000208DF8060008
:1003300001208DF805008DF807006946084800F097
:1003400027F9402000F036F8802000F029F84FF41B
:10035000807000F025F84FF4007000F021F81CBD0B
:100360000004024010B5032000F016FB10BD10B5CC
:10037000402000F015F8FFF7F5FF402000F01AF8D4
:10038000FFF7F0FF10BD000070B5044600252146C0
:10039000024800F045F90546284670BD00040240B9
:1003A00010B504462146024800F043F910BD000094
:1003B0000004024010B504462146024800F03BF913
:1003C00010BD000000040240704710B50A2000F084
:1003D000C7FA012000F08CF810BD10B50A2000F01B
:1003E000BFFA042000F084F810BD10B50A2000F018
:1003F000B7FAFFF7BCFF082000F07AF810BD10B57F
:100400000A2000F0ADFAFFF773FF102000F070F83B
:1004100010BD0EB500F014F90121880300F08EF92B
:100420000221042000F09CF90321042000F098F937
:100430000421084600F094F90021084600F090F9E4
:100440000120009000208DF8040008208DF80500A0
:1004500001208DF80600684600F050F81C2000903E
:1004600000208DF804000C208DF8050001208DF887
:100470000600684600F042F806208DF808000020CB
:100480008DF8090002208DF80A0001208DF80B007C
:1004900002A800F0FBF808208DF8080003208DF872
:1004A000090002208DF80A0001208DF80B0002A837
:1004B00000F0ECF809208DF8080002208DF8090002
:1004C0008DF80A0001208DF80B0002A800F0DEF87C
:1004D0000A208DF8080001208DF8090002208DF80F
:1004E0000A0001208DF80B0002A800F0CFF80EBD25
:1004F0000149086070470000143C01400021234975
:100500008279002A3AD00A46126803689A430B4659
:100510001A600A1D126803689A430B1D1A6002795B
:1005200011440A6803681A430A60184A08321268BC
:1005300003689A43154B08331A601A1D1268036842
:100540009A43124B0C331A604279102A0ED11A1FAB
:10055000126803681A430D4B08331A601A1D12689B
:1005600003681A43094B0C331A600DE007494279BE
:1005700011440A6803681A430A6005E002791144CD
:100580000A6803689A430A6070470000003C014013
:10059000F0B50A4600210023002400BF3DE00125FC
:1005A00005FA01F3156805EA03049C4234D1056895
:1005B0004F000326BE40B543056015794E00B54097
:1005C0000668354305601579012D02D01579022D95
:1005D00016D185684F000326BE40B5438560557926
:1005E0004E00B540866835438560456801268E40DB
:1005F000B5434560456896798E40B6B2354345604F
:10060000C5684F000326BE40B543C560D5794E008E
:10061000B540C6683543C560491C1029BFD3F0BD3D
:100620000246002053690B400BB1012000E000207E
:100630007047418370470183704700BFFEE70000A9
:100640001CB50121112000F069F81C200090002049
:100650008DF8040003208DF8050001208DF80700B7
:1006600069460648FFF794FF0120009002208DF8AC
:10067000070069460248FFF78BFF1CBD00100240CF
:100680000000024000BFFEE77047000070B5002187
:1006900000230F22C4781CB3174C246804F4E064D0
:1006A000C4F5E064C4F30721C1F10404E3B20A41D4
:1006B00044789C40E1B28478144021430C07210E19
:1006C0000E4C05786155047804F01F050124AC40F8
:1006D00005786D11AD0005F1E025C5F8004109E090
:1006E000047804F01F050124AC40054D067876110E
:1006F00045F8264070BD00000CED00E000E400E08D
:1007000080E100E002490143024A116070470000A5
:100710000000FA050CED00E07047000029B1064A20
:1007200012680243044B1A6004E0034A12688243D1
:10073000014B1A60704700003038024029B1064A68
:1007400012680243044B1A6004E0034A12688243B1
:10075000014B1A60704700004438024070470000A7
:1007600030B500228B071C0F0F2303FA04F20B4B4A
:100770008C1053F824309343084C8D1044F82530E6
:1007800023468C1053F824308C07240F00FA04F40D
:100790002343024C8D1044F8253030BD0838014009
:1007A0000CB50020019000903448006840F480307F
:1007B0003249086000BF3148006800F40030009002
:1007C0000198401C0190009818B90198B0F5A04F0D
:1007D000F1D12A48006800F4003010B101200090E7
:1007E00001E0002000900098012846D123484030C5
:1007F000006840F08050214940310860204800687E
:1008000040F440401E4908601C48083000681B49FD
:10081000083108600846006840F400400860084657
:10082000006840F4A05008601648091F0860081FBF
:10083000006840F08070091F086000BF0F48006822
:1008400000F000700028F9D040F205700E490860F1
:100850000A480830006820F00300084908310860A1
:100860000846006840F00200086000BF03480830F6
:10087000006800F00C000828F8D10CBD00380240D8
:100880000070004008544007003C0240042808D192
:100890004FF0E021096941F004014FF0E0221161BD
:1008A00007E04FF0E021096921F004014FF0E02258
:1008B000116170477047000010B51548006840F49A
:1008C0007000134908601348006840F001001149A6
:1008D000086000200F49083108600E4800680E4982
:1008E00008400C4908600D48091D0860081F006891
:1008F00020F48020091F0860002006490C310860A0
:10090000FFF74EFF4FF0006001498039086010BDCD
:1009100088ED00E000380240FFFFF6FE10300024B2
:1009200000BFFEE710B504466FF00400FFF7AEFF0E
:10093000E11704EB5171C1F3C701074A117010466A
:10094000007800EB4001C1EBC0104FF6FF7101EAE7
:10095000C0000249088010BD0000002002000020F5
:1009600070B504464FF4077094FBF0F0C6B24FF434
:10097000077094FBF0F100FB114085B205E04FF4E5
:10098000077000F02FF8701EC6B2002EF7D115B117
:10099000284600F027F870BD0146114A12784A43F4
:1009A0004FF0E0235A6100229A611A46126942F020
:1009B00001021A6100BF4FF0E022106900F001024D
:1009C0001AB100F48032002AF5D04FF0E02212690B
:1009D00022F001024FF0E0231A6100229A61704771
:1009E000000000200146114A12884A434FF0E023DC
:1009F0005A6100229A611A46126942F001021A6194
:100A000000BF4FF0E022106900F001021AB100F4BB
:100A10008032002AF5D04FF0E022126922F0010264
:100A20004FF0E0231A6100229A6170470200002013
:100A3000A820FFF777FFFFF76DFCFFF701FEFFF738
:100A4000E8FC4FF4A060FFF75DFE00BFFEE74FF04B
:100A50004070E1EE100A7047780A0008000000209C
:100A600004000000C40100087C0A00080400002003
:0C0A700064060000E00100080000000027
:040000050800018965
:00000001FF
